:020000021000EC
:1080000000280020FDD2010045D3010047D3010024
:108010000000000000000000000000000000000060
:1080200000000000000000000000000049D3010033
:1080300000000000000000004BD301004DD3010000
:108040004FD301004FD30100BDE701004FD3010022
:108050004FD301000000000015DD01004FD30100E7
:10806000B5470200C5470200D5470200814902001A
:108070004FD301004FD301004FD301004FD3010074
:10808000ED470200C93802004FD301004FD3010071
:10809000853902004FD30100412A02004FD301006D
:1080A0004FD301004FD3010000000000000000008A
:1080B00000000000000000000000000000000000C0
:1080C00010B5064C2378002B07D1054B002B02D0AE
:1080D000044800E000BF0123237010BD38290020B0
:1080E000000000006C7D020008B5084B002B03D097
:1080F0000748084900E000BF07480368002B00D18B
:1081000008BD064B002BFBD09847F9E700000000A4
:108110006C7D02003C29002038290020000000006E
:10812000164B002B00D1144B9D46402292029A1A06
:10813000924600218B460F461348144A121A0EF03D
:10814000EDF90F4B002B00D098470E4B002B00D0C1
:1081500098470020002104000D000D48002802D09F
:108160000C4800E000BF0EF087F92000290000F065
:1081700045FD0DF0CDFFC04600000800002800209E
:108180000000000000000000382900209C6D002045
:10819000000000000000000071DF704774DF7047CE
:1081A00076DF704777DF70477ADF70477CDF704794
:1081B000A7DF704760DF704735DF704744DF7047E7
:1081C00045DF704748DF70477047E5E50122014B06
:1081D0001A607047843200200122014B1A707047E8
:1081E000E42A00200122014B1A707047E029002088
:1081F00008B503F08FFB05F07FF908BD08B5012332
:108200000448082103700023034A43800AF052FC0B
:1082100008BDC04618340020C594010010B5041CE8
:1082200005F0DCFF201C09F075F810BDF7B50D1C3A
:10823000061C019203F02FFA19480CF0BCFC194FF0
:108240000199381C7F220EF0C4FA3B1C00227F33B8
:108250001A70154C154AABB2391C154813802660AC
:108260000EF002FA114B1348198889B20EF0FCF98E
:10827000216811480EF0F8F9104B1B6898680EF051
:1082800013F806F0F9FA301C291C019A06F0B8FF21
:10829000BFF34F8F0A4A0B4BDA60BFF34F8FFEE7F5
:1082A000787D02005429002014340020FC32002084
:1082B0007C7D0200877D0200927D020078280020EC
:1082C0000400FA0500ED00E010B5041C0AF034F9D2
:1082D000201C04F0A9FB201C06F02CFD211C2748C3
:1082E00008F0F4F8201C03F039FF201C02F0AEFF68
:1082F000211C234807F0B3FF201C02F065FA214837
:10830000211C07F0E9FE2388112B18D004D8012B7B
:108310002ED0102B05D02DE0392B1ED0552B1CD084
:1083200028E019480EF0A0F9072002F08FFA002883
:108330001AD1A088154B188002F012FD1AE01448DB
:108340000EF092F90122114B524212481A8002F0AB
:1083500007FD0122104B1A700CE00C4B13211888FA
:10836000FFF71EFF002805D000210A1CFFF75EFF63
:1083700003F0F8FE201C08F071FF10BDA8320020A9
:108380008C320020243400209F7D02001029002020
:10839000AB7D0200FFFF00000834002070B5051C13
:1083A00086B00E1C141E812C0FD0812A04D8012AFD
:1083B00011D0432A19D016E0882A06D0554B9A428C
:1083C00011D1554809F082FE0AE0544B1321188858
:1083D000FFF7E6FE54E0514B13211888FFF7E0FE4B
:1083E000002802D07FE0002C53D1281C311C04F05F
:1083F0001FFB30781138112800D987E00FF0C6F83C
:108400001409867F16868686868686868686868672
:108410007C4B434809F0C0FF041E3AD1414809F0A3
:10842000BBFF002872D025E03D486BE03E480EF0CF
:108430001BF914233D4E281C02A90393049609F04E
:10844000E3FE041E1FD13368DB0716D5334B384AD1
:1084500018880C21FFF7ACFE0823021C9A430CD0AD
:108460000222344BC318934307D0112805D0324B56
:10847000984202D0211C221C37E0281C09F020FF62
:10848000002843D02FE02D4B98423FD02C4B9842F0
:108490003CD0201C27E02B480EF0E6F82A4C02A91D
:1084A000201C04F067FEAB78039A9B00E318596820
:1084B0008A4202D2013203925A60039B059A0193C9
:1084C0009B1A012B13D1531C11D0012102AB1A7A34
:1084D00049429300E31859601C48A35C837009F07B
:1084E000C7FD002803D000210A1CFFF79FFE201CB7
:1084F000291C04F05DFE09E015480EF0B5F8002CCB
:1085000004D10848291C04220DF0EBFF002006B01E
:1085100070BDC046438000001234002010290020A6
:10852000A4320020F0320020BA7D0200C8320020C0
:10853000FFFF0000FECFFFFF01340000408000007D
:1085400010800000D87D0200E0320020EC320020D4
:10855000E67D020010B5174B1888174B984205D0DE
:108560001321FFF71DFE00280BD01AE0FFF716FEBF
:10857000041E16D102F06AF9002802D0211C221C28
:1085800011E006F079F9FA2005F0E2F90320322132
:1085900000F0CAFEFA2005F0DBF906F0C3FB002864
:1085A00003D000210A1CFFF741FEFA2005F0D0F9A4
:1085B00010BDC04610290020FFFF00003A4AF0B568
:1085C000537B127B1B021343384AA5B0138004F07F
:1085D00033FA01240026354B354A9870354B364F17
:1085E0001380364B0CAD1B7800219470BB70302289
:1085F0003C80281C0DF092FF314B301C1E70FFF7A1
:10860000D1FD2F4B011E02970393B14246D105269F
:10861000274B04AF6B61254B2022381CEB61AC70FB
:10862000EE702C822C830DF079FF264A1378012BF3
:108630000AD82823FB60C8239B0014703C703C724E
:108640003E613C75BB6110E0022B02D13C729E334F
:1086500002E0032B09D19D33FB60643B3B61C823DF
:108660009B00BB61B4233C75FB6118AC0021302238
:10867000201C0DF053FF01230722002623702382C4
:10868000029B62706361039B281C6360211C00963F
:108690003A1C0D4B08F03EFCB04203D0311C321C9A
:1086A000FFF7C4FD25B0F0BD8F8B0200023400201F
:1086B000C4320020141800000E340020A83200201C
:1086C000D429002008340020CD86010010B594B0D4
:1086D00006283DD80EF05AFF1004060A083C220076
:1086E000052004E0022002E0032000E0042002F064
:1086F000ADF800282CD01FE0164B1A78012A01D0C3
:10870000022A01D101321A70FFF758FF022008F047
:10871000B7FC0823021C9A431AD00DE008236A46CE
:108720001371137304AB00930B480CAB69460293AF
:1087300009F048FC041E02D000210A1C06E068462D
:1087400008F004FE002803D0211C221CFFF76EFD58
:1087500014B010BD0834002012340020002108B5E8
:108760000A1CFFF763FDE5E508B5031C0A1C024877
:10877000191CFFF75BFDC046EFBEADDE70B50B4DBB
:108780000B4E286030680BF0F3FB041E02D0002172
:108790000A1C08E030682968221C0BF09DFB0028A9
:1087A00003D0211C221CFFF741FD70BDE82A0020E8
:1087B000D829002070B502F0D9FA002808D0214B42
:1087C0001A68E0239B029A4202D18020C0010BE08C
:1087D00002F0CCFA002809D11A4B1A688023DB0179
:1087E0009A4203D1E0208002FFF7C8FF04F060FC4A
:1087F000154C2368002B24D0144D2B782E1C002BF5
:1088000004D104F04DFC01232B701AE004F04CFC61
:10881000002816D004F03EFC011C0D4807F010FEA5
:108820000823021C9A4309D00A4B984206D00A4BEF
:10883000984203D000210A1CFFF7F8FC00232360B4
:10884000337070BDE82A00208432002007340020F5
:108850008C3200200430000001340000F8B5304BA9
:108860001A78012A03D100221A7004F02BFE2D4B36
:108870001A78012A53D100252B4C1D70201C01F0C1
:10888000D5F9201C04F058FE04F0DAFD274B284CE3
:108890001B88C01A208004F0D9FD264B21881B8834
:1088A000254AC01A254B80B21880914200D92580F4
:1088B000904201D900221A80214B1A68551C1D6074
:1088C000204B1E68204BAA1B9A4228D91F4A1378B6
:1088D0005F2B01D8013313701D4F602138780130B0
:1088E0000EF0DEFF20881B4B4A00D052134B39702C
:1088F00019481F8889001752184A8E50114A15606E
:1089000000221A80228004F09BFD084B188004F09E
:108910009DFD084B124A1880137801331370F8BD7F
:10892000E0290020E42A0020B06B0020F43200206F
:108930000A340020DC32002060EA0000003400200D
:10894000F8320020DC2900204F4600008832002049
:108950000C340020BC6B00209C6C0020206A00209E
:108960000634002038B5041C0D1C0B482A1C231C9F
:108970000DF07AFE012D0DD96378762B0AD10020F7
:10898000022D02D0A01C0DF0B5FB044B184380B2A1
:1089900003F003F938BDC046F27D020000C0FFFFBE
:1089A00030B50D1C89B0141E07D00B78782B04D17C
:1089B000081C111CFFF7D6FFC5E0231F102B04D89D
:1089C000281C211C00F0A8FBBDE0032C12D12A1C9E
:1089D000E91C1378303B581E83415B42137001320F
:1089E0008A42F6D1012040420CF0D9F8281C0CF044
:1089F000E2F8A8E0012C00D0A5E02B786D2B15D172
:108A000003A9203B0B701D3B4B7014338B70133B41
:108A1000CB7022330B71213B4B714C48063B8B7161
:108A2000837D0622002B00D18DE084E0522B0ED1F5
:108A30000320322100F01BFEFF20FFF7C1FB201CAA
:108A4000FFF7BCFB00287AD1FFF7B6FB7BE0612B78
:108A500004D10320322100F067FC74E0762B17D19B
:108A6000201C00F00BFE00F007FE3949021C03A891
:108A70000DF026FE3548837D002B05D003A900228A
:108A800007F03AFE00285AD1002000F0F7FD5AE026
:108A9000682B02D100F0FAFD55E0482B02D100F01E
:108AA000EFFD50E0412B0CD12A490023CA5E022081
:108AB0000B5E0420095E03A8009127490DF000FE1B
:108AC0002FE0532B1AD104F0BBFC051C04F0BEFCB4
:108AD000041C04F0C1FC002802D003A81F4908E0D0
:108AE00004F0C4FC002802D003A81D4901E01D4980
:108AF00003A82A1C231C0DF0E3FD12E0472B22D112
:108B000004F008FD1849002806D1052203A80DF03D
:108B1000D7FD04F0D7FC04E0012203A852420DF077
:108B2000CFFD0A4CA37D002B0DD003A80DF036FE1F
:108B300082B2201C03A907F0DFFD002803D000212A
:108B40000A1CFFF773FB09B030BDC046A8320020F5
:108B5000FF7D0200B06B0020047E02000D7E02004B
:108B60001C7E02002B7E02000A7E020000B593B03C
:108B70006A4603231370134B00215380124B02A843
:108B800093800223D38040220DF0C8FC02A80F4935
:108B900006F006F80AA80E4906F002F86B462122F4
:108BA000109311AB1A70452300226B4402A81A706F
:108BB00008F0D6F8002803D000210A1CFFF736FB86
:108BC00013B000BD20C4FFFF021C00003D7E020068
:108BD0004F7E020008B5002804D00120322100F0A9
:108BE00041FD03E00320322100F067FC08BD07B51A
:108BF0006B46D81D0BF0A6FA07BDE5E5F0B50024DD
:108C0000CF4B93B0201CCF491C700BF003FE051E08
:108C1000A54266D1CC480BF04DFE041E04D0201CAA
:108C2000291C2A1CFFF702FB0BF020FE02F016FDA8
:108C300002F0B6FBFFF7DBFFC44B201C00931521AD
:108C40000D22C34B0BF0ACF8061E00D0F9E1C14871
:108C50000121C14A0BF018F9051E00D06BE1BF4895
:108C6000291CBF4A0BF010F9041ED8D1BD48211CA5
:108C7000BD4A0BF009F9051E33D1BC48291CBC4A7A
:108C80000BF002F9041ECAD1BA48211CBA4A0BF0F3
:108C9000FBF8051E25D1B9480121B94A0BF0F4F8BB
:108CA0000028BDD1B7480121B74A0BF0EDF80028E4
:108CB00000D0E4E10BF06FFF04F013F90120404213
:108CC0000BF06DFFAA2380220024DB00D205D450D4
:108CD0001120AE494822231C09F07AFE051EA54248
:108CE00001D0281CADE101270BAC291C0822201C57
:108CF0000DF014FC2378201C3B432370FFF75AFA35
:108D0000061E00D0F3E0A24809F086FE051E00D042
:108D100011E1A04809F08AFE061E00D0E7E005F048
:108D200035FE322004F014FE01F002FA0130431E39
:108D300098419949C0B2FFF74DFF984800F070FE86
:108D4000434258419649C0B2FFF744FFA023954AD9
:108D5000DB00D65008200F21934A09F087FE051E3C
:108D600000D0E8E002AB1876904809F015FB061E2B
:108D700000D0BCE08E4809F00FFB051E00D0DAE001
:108D800005F0C0FA061E00D0B1E008A809F00AF804
:108D9000011E00D0D0E0292002ABC01805220DF042
:108DA000BDFBE122637983483B431340D53A13432B
:108DB0001432934363710723A3710933E3717E4B2C
:108DC000211C2360277109F05DF8002800D056E1CE
:108DD0007A4804F071F908200F21794A09F046FE1B
:108DE000051E00D04BE10127102305AE3B4306A82A
:108DF0003370FFF7D1F902AA527C0BAC02AB9B7C1B
:108E000070490092201C704A0DF05AFC201C0DF095
:108E1000C5FC211C82B2301CFFF7C8F9061E66D1C2
:108E200008AD311C0822281C0DF078FB18232B807C
:108E300038336B804133FF33281CEB80AE80FFF763
:108E4000B3F90390031E77D103F0EAFD03990422DE
:108E500006A80DF063FB5D4B5D4806A9069307F07D
:108E600067FB061E01D003990AE1281C311C0C2265
:108E70000DF054FB574B291C57486B60AE602F8098
:108E800006F0D4FF051E56D154480AF063FC494B46
:108E900018780AF065FCFFF769FE291C1422201CD3
:108EA0000DF03CFB64230F222373637B4C489343F8
:108EB0003B431340013213436373A37B013A934353
:108EC0003B43134001321343A3730023E373237C1A
:108ED000013A93433B43134001321343211C256065
:108EE0002771A560237407F0E1F9061E01D0301C3C
:108EF00096E603F02BF901F0A7FE011C39480DF0AE
:108F0000B3FBFFF75BFB311C1C22201C0DF006FBA2
:108F1000A0239B026360F0231B03A360032323733E
:108F2000314B201C2660E68127746661A36105F041
:108F3000C1FE051E5AD0281C311C321C72E6C046E8
:108F400008340020C98101005C6D0020154002003A
:108F5000342B0020B86B002021940100A46B00206A
:108F6000E5810100A06B002051920100AC6B002054
:108F700001930100A86B00209DA00100D8290020CA
:108F8000CD81010020340020D9810100EC2A00208D
:108F9000C98201001D820100567E0200FD81010090
:108FA0005E7E02000040004000330020A43200201A
:108FB000F0320020123400209D830100E0320020B6
:108FC000E4290020647E02006F7E0200A189010076
:108FD000A8320020E9350200243400205585010024
:108FE0008C320020777E02005D87010002F0CCFE0B
:108FF00002F0CEFE02F030FF02F0D7FD02F086FC58
:10900000244800F059F8244800F066FC00F08CF881
:1090100004F070F921480DF027FBE021204B890274
:109020001960204B2A1C18680AF056FF041E00D055
:10903000F5E51D4B1D491868221C0AF04DFF00285C
:1090400002D0211C221CEDE500F0CCFD022008F02E
:1090500017F8002813D104F019F804F0BFF904F050
:10906000DFF904F02FFA124804F060FA114804F016
:1090700057FA09F0C7FDFFF7A5F8002802D0002134
:109080000A1CCFE50BF000FCFFF794FBFFF7E6FBB3
:10909000EFE7C046A8320020759301008D7E0200E4
:1090A000E82A0020D829002020340020660600008D
:1090B00088130000F181010038B5051C0E4B0F48E4
:1090C0000524C36008230472437200F067FC0C4857
:1090D0000C4B0472C36014230024437200F05EFC46
:1090E000094B1D60094B1C7003F03CF80122084B32
:1090F000201C1A7038BDC04654340020606D00201A
:10910000706D00207C340020846D0020806D002074
:10911000E034002000207047002070470122014BFE
:109120001A707047E0340020F8B5F0262B4F760017
:10913000381C321C00210DF0F1F900215022284882
:109140000DF0ECF9274D0021281C14220DF0E6F952
:109150000A2430232F61EB60AC60234D321C281CA5
:1091600000210DF0DBF90021502220480DF0D6F946
:109170001F4E0021301C14220DF0D0F93023B460B2
:10918000F36035611B4E0021301C78220DF0C6F9CA
:109190000021502218480DF0C1F9184D0021281C5B
:1091A00014220DF0BBF90C232E61154E0021301C4A
:1091B000A022EB60AC600DF0B1F900215022114803
:1091C0000DF0ACF9104D0021281C14220DF0A6F969
:1091D00010232E61AC60EB600020F8BD98350020B4
:1091E000343500208435002004380020E434002089
:1091F000843A00208C370020343A0020383B00208D
:10920000983A0020E43900207837002036DF704794
:1092100037DF704738B5051C0020FFF7F7FF094C12
:1092200020680AF0A5FE084B0022196820680AF0A1
:1092300053FE064B1878281818700020FFF7E8FF37
:1092400038BDC046A06B0020102800204F3B0020F6
:1092500010B50C4B0C4C1B78002B0FD10B4B1B7813
:10926000002B0BD023780120022B02D0032B05D139
:10927000042002F06FFF064802F08FFC00232370E9
:1092800010BDC046503B00204F3B00204D3B00200E
:1092900002E0000038B5051C0020FFF7B7FF124CB4
:1092A00020680AF065FE114B2068196800220AF058
:1092B00013FE0F4B18782818C0B2062801D8187072
:1092C0000BE007221A700B4B1B78002B05D00A48C5
:1092D00002F063FC0122094B1A700020FFF798FF8F
:1092E000002001F05DFB38BDAC6B0020142800208D
:1092F0004C3B00209928002006E00000503B002055
:1093000010B50024054B06481C7002F04AFC054BC2
:10931000201C1C7001F044FB10BDC0464C3B0020DB
:1093200006E00000503B002008B500F0EDFE00F024
:109330009BFE08BDF8B5061C012040420D1C171C01
:1093400000240BF02CFCB4420DD0381C0BF033FC85
:10935000281C04F0FDFA06480BF02DFC281C04F034
:10936000F7FA0134EFE700200BF019FCF8BDC04616
:109370009A7E0200F7B5071C214801910DF074F99F
:10938000204C019A637B157B002B01D0002D35D139
:109390001D4E002D22D0221C019B23CB23C203CBC8
:1093A00003C2391C19480DF05FF90123637300F003
:1093B000ABFE201C00F08DFE00F056FE221C0320A8
:1093C00008321921FFF7B6FF114B306819680022E7
:1093D0000AF082FD002811D00E480DE0391C0E481D
:1093E0000DF042F930680AF0C3FD061C00F090FE53
:1093F0006573002E02D009480DF036F9F7BDC0465E
:10940000BC7E0200583B0020B86B0020CE7E0200DC
:1094100094280020EC7E02000E7F02002C7F0200C8
:1094200038B513480DF020F9124DEB7A2C1C002BA7
:1094300008D011480DF018F900F06AFE286900F014
:10944000D7F913E00D4B1B78002B07D000F05CFE22
:10945000281C00F03EFE00F007FE01E000F058FE80
:10946000221C032008321921FFF764FF38BDC046D3
:109470004D7F0200583B00205A7F0200533B0020E2
:10948000F8B5071C012040420D1C161C00240BF0EF
:1094900086FBBC420DD0301C0BF085FB281C04F071
:1094A00057FA301C0BF083FB281C04F051FA0134EE
:1094B000EFE700200BF073FBF8BD08B50122FFF7C2
:1094C000DFFF08BDF8B5002800D1ADE0002900D1CC
:1094D000AAE00178041C012900D0A0E04168534DA6
:1094E000281C002903D002220CF0FBFF01E000F051
:1094F0005BFA2F78012F02D0022F21D078E06B7811
:10950000022B02D0042B04D00EE0381CFFF7C2FE61
:109510000AE0474B1B78002B06D103F093FA002892
:1095200002D1381CFFF776FE04F0F2F9002801D0D2
:1095300040483BE004F0F6F900285DD03E4835E0B5
:109540006E78042E3AD002D8022E05D054E0102EA8
:1095500046D0202E3ED04FE003F074FA00280CD005
:10956000364B1B78002B04D0102002F0F3FD02F0E4
:10957000D9F90022324B1A703EE0301CFFF78AFE08
:10958000304B1F78002F37D12F4B1B78002B33D057
:109590002E4E3378002B0CD1102002F0DBFD01237E
:1095A000337004F0C9F9002826D1294802F0F5FAF1
:1095B00022E0202002F0CEFD3770F2E71C4B1B7832
:1095C000002B19D103F03EFA002815D1381CFFF703
:1095D00021FE11E01F4B10201B78002B0CD004E063
:1095E0001C4B1B78002B07D0202002F0B3FD03E0BA
:1095F00004201921FFF761FF0323174F174E381C72
:1096000033700DF0CBF87080301C7760FFF782FD6F
:10961000022365606380201CFFF77CFD04E0104896
:109620000DF022F8FFF77AFDF8BDC046513B00204F
:109630006C44002008E0000005E000009A280020AB
:10964000533B0020503B0020982800204E3B002038
:1096500004E00000543B0020727F02006C3B0020BD
:109660007B7F020008B50222FFF70AFF08BD08B59C
:109670000322FFF705FF08BD5A2070477047E5E554
:109680000122014B1A707047543B00200022014B0D
:109690001A707047543B0020002210B594235343A6
:1096A00007495C58A04204D001320F2AF6D10020AD
:1096B00005E01C1C90340C5DE406F5D4C81810BD00
:1096C000783B0020F8B50F1C161C1D1CFFF7E4FFAB
:1096D000041C0720002C52D00020032F4FD8381C28
:1096E000271C202290370DF051FF02152436954299
:1096F00000D8EAB2251C201C6A352A706B30311C58
:109700000CF0EFFE00202B780422E4186834E0709F
:109710003B7832E0954200D8EAB22271601D311CDC
:109720000CF0DFFE002023790122E41860713B7801
:1097300023E0954200D8EAB2201CE51DEA772730E5
:10974000311C0CF0CEFE0020EB7F0822E418083418
:10975000E0773B7811E0954200D8EAB2251C201C46
:1097600048352A704930311C0CF0BBFE0020022223
:109770002B78E418483460703B7813433B70F8BD95
:1097800008B5FFF789FF031E07D00F23903000783C
:1097900003400F3B58424341DBB2181C08BDE5E5CE
:1097A00008B5FFF779FF031E08D00020044A12789D
:1097B000824203D0903318788006C00F08BDC0469F
:1097C000743B0020002310B594225A430749545893
:1097D000A04204D001330F2BF6D1FF2004E09032D9
:1097E0008A5CD206F6D4D8B210BDC046783B0020C1
:1097F00070B586B0FFF7E6FF01AC104DFF280AD127
:1098000000211422201C0CF089FE00202B68211C52
:10981000984707200FE0942300264343084A267305
:10982000D318084A90331E701378211C013B137023
:109830002B689847301C06B070BDC04624440020F9
:10984000783B0020743B0020002210B59420011CBE
:1098500051430B1C054C9033E05C1023184001D0A1
:10986000601802E001320F2AF0D110BD783B0020D1
:10987000F8B5051C0F1C161CFFF70EFF041C072073
:10988000002C14D1FFF7E0FF031C0420002B0ED0A6
:109890001A1C0748903214701D601B1A05483C21A1
:1098A0009B104343201C5770043A11603370F8BD7D
:1098B000783B0020AD1B4C919422504310B5054CD1
:1098C00000212418201C0CF029FE10239034237052
:1098D00010BDC046783B002038B5051C0024201C74
:1098E0000134E4B2FFF7E8FF0F2CF8D10024094B54
:1098F00001211D60084D094B281C094A1C700AF003
:10990000C3FA802128680902221C0AF0E5FA201C0B
:1099100038BDC04624440020886D0020743B0020E0
:109920003D99010008B5FFF74DFF0723FF2802D03E
:10993000FFF7C2FF0023181C08BDE5E570B5134D05
:10994000134B2C1CED188C342379DB061AD42368B6
:10995000002B01D0013B23602368002B12D1231C74
:109960008C3B1E68301CFFF71BFF00280AD1301CFF
:10997000FFF7D8FF002801D1064800E00648311C57
:109980000CF072FE9434AC42DED170BD783B002006
:1099900038090000D07F0200F87F02000023036036
:1099A0004360181C7047E5E573B5164A041C13683C
:1099B0001521013313601E2001AB012200F0A9FE26
:1099C0006B465D1D2B1C122101221E2000F0A1FE02
:1099D0006B469E1D331C132101221E2000F099FEB0
:1099E00033782A781B079B0F23703F231340637043
:1099F0006B461721012207331E2000F08AFE00204B
:109A000076BDC0462C44002008B50F21031C01225E
:109A10001E2000F07EFE01235840C0B2404208BD27
:109A200073B5A023802103252C4ADB0589019950B9
:109A30002B4A041C9D506B465E19301CFFF7E4FF57
:109A400033780520222B47D118214422193000F009
:109A50008EFE1B212A1C1E2000F089FE1C213022B4
:109A60001E2000F084FE1E203F22011C00F07FFE1D
:109A70001F2104221E2000F07AFE272150221E20E2
:109A800000F075FE502225211E2000F070FE1721E7
:109A90001E2000F05EFE1E201821842200F067FECA
:109AA000201E19D003F0A6FF002803D103F07AFF8F
:109AB000002811D10023012501A9221C1A200D70B4
:109AC0004D708B70CB7004F06BF8041E03D11A201C
:109AD000291C04F0D1F8201C76BDC0460C050000FE
:109AE000340700008023DB05834201D99B08FBE794
:109AF0000022002B08D09918884202D3401A59003E
:109B0000521852089B08F4E7101C70471FB5062135
:109B10006B460A1C1E2000F0FCFD6B465978187835
:109B200009020143D8789B78000218436B465B79A1
:109B300009B21A026B461B7900B2134349431BB2A8
:109B400040435B434018C018FFF7CCFF80B205B01C
:109B500000BDE5E513B56B4601ACD81CFFF754FF1B
:109B6000231C152101221E2000F0D3FD6B4612217B
:109B7000012205331E2000F0CCFD6B460122063386
:109B800013211E2000F0C5FD18211E2000F0E1FD6C
:109B90001C211E2000F0DDFD1E20011C00F0D9FD5F
:109BA0001F211E2000F0D5FD1E20272100F0D1FD31
:109BB00023780A4C002B0AD02378002B06D06B4662
:109BC0001E2017210122073300F0A3FD012323707B
:109BD000FFF79CFF024B188013BDC0462A440020AB
:109BE0002844002010B50C4C0121201C0B4A0AF01F
:109BF0004BF9002803D000210A1CFEF717FBA02117
:109C00002068890200220AF067F9002803D00021A9
:109C10000A1CFEF70BFB10BD30440020559B0100D1
:109C2000014B18887047C0462844002013B5062110
:109C3000041C0A1C6B461E2000F06BFD6B466A4636
:109C40005B7812781B02134323806B466A46DB78ED
:109C500092781B02134363806B466A465B791279E4
:109C60001B021343A38013BD031CF0B5164D85B032
:109C70000C1C281C191C0AF077FD211C071C281C31
:109C80000AF072FD00238024012603900093281C13
:109C9000191C3A1C0AF053FD2B68A40019590B4AF1
:109CA000281C0A401A511A59311CB2431A51039BFD
:109CB0000096DA1902230AF042FD2A681359B343C9
:109CC000135105B0F0BDC04630290020FFFEFFFF54
:109CD00008B5154B18780AF0DDFA002803D00021EA
:109CE0000A1CFEF7A3FA114B18780AF0D3FA0028E1
:109CF00003D000210A1CFEF799FA002003F0F6FEBB
:109D0000FA20A02140004900FFF7AEFF0022084BD7
:109D100008481A60084B01321A600AF097FC80224A
:109D2000064B52001A6008BD344400204044002015
:109D300038440020302900200C8C004000E100E075
:109D40000022F8B5214B224C5A649A6423680133EF
:109D50002360012B03D16420011CFFF785FF1D4EFA
:109D60002268336801339A4204D1FA216420490001
:109D7000FFF77AFF33682268023300259A4223D323
:109D8000154F381C0AF0ACFC144B381C1D600AF04F
:109D900071FC134B18780AF095FAA84203D0291CDD
:109DA0002A1CFEF743FA0F4B18780AF08BFA0028AA
:109DB00003D000210A1CFEF739FA002003F0B2FE9E
:109DC0000023012523603360281CF8BDFC8000407F
:109DD000384400203C440020302900200C8C0040F6
:109DE000344400204044002008B500F037F9431EF9
:109DF0009841C0B208BDE5E508B5064B06491860B4
:109E0000C8235843F023DB00C018044A00F01EF9B1
:109E100008BDC0463C440020D19C0100419D01008A
:109E2000F7B503242849221C01A80CF05AFBA023F3
:109E30000121264ADB059950F532FF329C50002063
:109E400001A903F0DFFD002803D000210A1CFEF762
:109E5000EDF91F4F381C0AF075F9002803D00021D6
:109E60000A1CFEF7E3F91B4C201C0AF06BF90028D2
:109E700003D000210A1CFEF7D9F9002003F066FE8A
:109E8000A021154D061C4900281C0AF031FC321C8B
:109E9000011C38780AF0DCF9002803D000210A1CE4
:109EA000FEF7C4F9A221281C49000AF021FC321C4B
:109EB000011C20780AF0CCF9002803D000210A1CEC
:109EC000FEF7B4F90020FEBD338002000C0500004F
:109ED0003444002040440020302900204EDF7047E9
:109EE0004FDF704750DF704738B5214C03283CD80E
:109EF0000DF04CFB02221F370023636023701D4BC3
:109F00001B68002B0FD18021C1231B4A49029B00F3
:109F1000D150A821194BC9001B68C83B535080225F
:109F2000174B52001A60174B1B68002B1DD0984727
:109F30001BE00023636017E00E4B1A681D1C101E07
:109F400000D090472B68002B01D0002806D00222B9
:109F5000002322700C4A6360136006E0606020708A
:109F600003E00023636002332370201C38BDC04629
:109F700058440020644400200080004068440020D1
:109F800000E100E0544400206044002008B50023B4
:109F900006480370013303714371054B1B688360EE
:109FA000044BC360FFF79EFF08BDC0464444002039
:109FB0006844002040420F0070B5051CC8200138DD
:109FC000C046C046C046C046C046C046C046C04661
:109FD000C046C046C046C046F1D1154B11201A6894
:109FE000002A23D10E1C01211960124B1968002987
:109FF0000AD011481A60FFF771FF041E04D0211C1B
:10A000000E480CF031FB10E00D4B281C1E600D4B70
:10A010001D60FFF7BBFF041C0020844206D0211CFA
:10A0200009480CF021FBFFF75BFF201C70BDC04608
:10A030006044002090280020E99E01003680020044
:10A0400054440020684400204A80020008B5024BB6
:10A050001A60FFF7B1FF08BD64440020014B186887
:10A060007047C0466044002038B50124084D286878
:10A0700009F07EFF074B28681C70074B0022196807
:10A0800009F02AFF0C21221C5A2000F070FB38BD79
:10A09000A86B00206C440020A42800200022014B63
:10A0A0001A7070476C4400207047704710B5041C4C
:10A0B00000215A200122231C00F02BFB002805D090
:10A0C0001F22237800209343237001E001204042A7
:10A0D00010BD38B5051C0024201D295DC0B2013417
:10A0E00000F00FFB082CF7D1002038BD08B50AF0AE
:10A0F00066FD5A200121002200F039FB002398421E
:10A1000000D10333181C08BD08B5FFF7EFFF08BDE9
:10A1100010B50024054B012140225A201C7000F08C
:10A1200026FB0AF055FD201C10BDC0466C440020E3
:10A1300013B50AF044FD6B46DC1D201CFFF7B6FF8B
:10A140002378602B24D100F043F80420562100F03E
:10A15000D8FA0520882100F0D4FA5621062000F014
:10A16000D0FA00F077FA022000F0C4FA00220A4B7D
:10A1700003CB131C00F048FAFFF776FFFA204000EB
:10A1800003F0E6FBFFF7C4FF0AF022FD002001E028
:10A190000120404216BDC046648002009322074B56
:10A1A0001A70074B62321A70064B553A1A70064BFA
:10A1B000803A1A700022054B1A70704774440020D0
:10A1C00075440020764400207E4400207C4400201A
:10A1D00008B51A4A1A4B1A80FFF766FF01210022C0
:10A1E0005A2000F0C4FA022100225A2000F0BFFADF
:10A1F000042101225A2000F0BAFA052100225A2037
:10A2000000F0B5FA0D2100225A2000F0B0FA0E211C
:10A2100000225A2000F0ABFA0F2100225A2000F051
:10A22000A6FA102100225A2000F0A1FA132164227C
:10A230005A2000F09CFAFFF7B1FF08BD92B2FFFF71
:10A240007244002008B5064B5A201A78111E0129C5
:10A2500003D00121022A00D0002200F088FA08BDB4
:10A260007044002010B5314B1B78002B02D0012B1D
:10A2700030D05AE02E4B2F4C1B78002B09D02E4BA0
:10A280005A201A78172100F072FA202223781A43F4
:10A2900008E02A4B5A201A78172100F068FA202388
:10A2A00022789A431D215A2000F061FA244B16218E
:10A2B0001A785A2000F05BFA224B18211A785A209B
:10A2C00000F055FA204B5A201A78192100F04FFA65
:10A2D0001E4B25E01E4A1178164A1278002901D03B
:10A2E0001A4300E09A431D215A2000F040FA194B0E
:10A2F00016211A785A2000F03AFA174B17211A78CB
:10A300005A2000F034FA154B18211A785A2000F020
:10A310002EFA134B5A201A78192100F028FA114B03
:10A320001A785A201A2100F022FA10BD7D28002048
:10A330006D440020764400206F44002081440020BA
:10A34000774400207F4400207A440020824400208B
:10A35000834400206E440020804400207B44002081
:10A360007944002078440020012208B50E4B1A7071
:10A370000E4B1B78002B04D10C215A2000F0F7F96A
:10A3800010E0012B0ED164200138C046C046C04603
:10A39000C046C046C046C046C046C046C046C0468D
:10A3A000C046F1D108BDC0467D4400207044002065
:10A3B000F0B55A4B85B01B78050A02900C1C03912E
:10A3C000EDB2002B00D1A7E002AB1878032800D92A
:10A3D00082E00DF0DBF8023035595A2003210022CB
:10A3E00000F0C5F90026AE4222D2A319A15D5A7829
:10A3F0005A20023600F0BBF9F6B2F4E7B31CE318BA
:10A4000001931B78A719FF2B17D039785A2000F039
:10A41000A0F9021C019B39781B789A437B781A4378
:10A42000D2B25A2000F0A3F90336F6B2AE42E5D319
:10A43000FFF79AFF70E00026F8E7A15D7A78F0E771
:10A440005A200121032200F092F90023AB4200D3ED
:10A4500062E00022E1184978914212D93049088817
:10A460000138C046C046C046C046C046C046C04689
:10A47000C046C046C046C046C046F1D10132D2B245
:10A48000E8E70233DBB2E1E75A200121052200F0C0
:10A490006EF90026AE423FD2A25D5A20022100F0A2
:10A4A00066F90023A21952789A4212D91C4A1088E0
:10A4B0000138C046C046C046C046C046C046C04639
:10A4C000C046C046C046C046C046F1D10133DBB2EB
:10A4D000E8E70236F6B2DDE70026AE4200D3A7E792
:10A4E000B31CE31801931B78A719FF2B0CD0397804
:10A4F0005A2000F02EF9021C019B39781B789A43F0
:10A500007B781A43D2B201E0A15D7A785A200336F3
:10A5100000F02DF9F6B2E0E705B0F0BD18290020F3
:10A520007244002008B5104B1A78002A1BD0002274
:10A530001A700E4B1A78002A04D10C215A2000F010
:10A5400016F910E0012A0ED164200138C046C04639
:10A55000C046C046C046C046C046C046C046C046CB
:10A56000C046C046F1D108BD7D44002070440020A3
:10A5700008B5034B1B78002B01D0FFF795FD08BDF4
:10A580001829002008B5034B1B78002B01D0FFF7DA
:10A590008CFD08BD8D28002008B5124B1B78002BC0
:10A5A0001ED00022104B1B211A70104B5A201A7813
:10A5B00000F0DDF80E4B1C211A785A2000F0D7F875
:10A5C0000C4B5A201A781D2100F0D1F80A4B1A784A
:10A5D0000A4B1A700A4B1A780A4B1A70FFF7D2FF0F
:10A5E00008BDC046182900207D4400207444002086
:10A5F00075440020764400207E4400206D440020F5
:10A600007C4400208344002013B501910E49009042
:10A610000978C4B2002916D00C49201C0A700C4AD3
:10A620001370FFF7A5FFFFF70DFEFFF71BFEFFF707
:10A6300079FF00980199FFF7BBFEA31E012B02D8FA
:10A64000201CFFF7A9FF13BD182900207D2800203A
:10A650007044002038B5FFF727FD36230D221C4C2F
:10A66000962123701B4B1C4D1A701C4B61321A70C3
:10A670001B4B313A1A70AA232B701A4B5A201970AF
:10A68000803900F074F82A7817215A2000F06FF80A
:10A6900022781A215A2000F06AF8134B1B211A78ED
:10A6A0005A2000F064F8114B1C211A785A2000F04F
:10A6B0005EF80F4B1D211A785A2000F058F801213E
:10A6C00000225A2000F053F8FFF75CFF38BDC04667
:10A6D000824400207F440020814400207A440020EE
:10A6E000774400206F44002074440020754400200B
:10A6F0007644002008B5021C03215A2000F037F8E8
:10A7000008BD08B5031C0A1C5A20191C00F02FF8BC
:10A7100008BD73B51D1C6B46161CDA1D2B1C4000B2
:10A720001170C4B2591BB14203DA00211970013310
:10A73000F8E7111C201C0122002304F063F9002813
:10A7400006D00123201C291C1843321C04F05AF99E
:10A7500076BD37B56B460024DD1DDC7101222B1C54
:10A76000FFF7D7FFA04200D02C78201C3EBD07B5D4
:10A77000400001AB19705A70191CC0B202220123AB
:10A7800004F040F90EBD08B503200221012200F0BB
:10A790005FF8002801D0072814D102200722011CED
:10A7A00000F056F8002801D007280BD10320002123
:10A7B0000A2200F04DF8031C0020834202D0072B30
:10A7C00000D0181C08BDE5E510B50388102B02D099
:10A7D000112B27D035E01B4C216800291ED1032006
:10A7E000012200F035F8002801D0072811D10220FD
:10A7F0000722011C00F02CF8002801D0072808D1FE
:10A8000003200221042200F023F8002806D00728A4
:10A8100004D00D4B1B68002B00D0984723680133F0
:10A8200023600EE0074A1368013B1360002B08D138
:10A83000FFF7A9FF002804D0034B1B68002B00D0B2
:10A84000984710BD884400208444002000207047B1
:10A8500007207047A0DF7047A2DF7047A4DF704772
:10A86000A5DF7047A6DF704763DF704767DF70477B
:10A870001FB5002301AC02AA029323706370023358
:10A880001380084B011C18885460FFF7E9FF011E74
:10A8900002D005480BF0E8FE20788007C00F04B016
:10A8A00010BDC046E04400207C8002001FB500239C
:10A8B00001AC02AA02932370637002331380084B29
:10A8C000011C18885460FFF7CBFF011E02D0054819
:10A8D0000BF0CAFE01232078184004B010BDC0461A
:10A8E000E04400207C800200F0B5194D87B0071CC1
:10A8F000A8880C1CFFF7BCFF061CA888FFF7D6FF32
:10A900006B46A1B2D98002AC00280AD1002E08D132
:10A910000296221C21800F4829886760FFF79EFF5E
:10A9200014E0201C10210BF0EBFB094B211C1B88B1
:10A93000E7602380331C5A1E93410133A3706B469A
:10A940000633A360044B1888FFF78CFF07B0F0BDF7
:10A95000AA440020FFFF0000E0440020B02307B518
:10A9600001A803700A4B03211B78DA00094B1B78FE
:10A970009B001343084A12781343084A1278520086
:10A980001343437000238370FFF7AEFF07BDC0463B
:10A99000992800204D3B00209A280020982800206C
:10A9A000F0B54B4C8BB0206809F0E2FA494E2068B4
:10A9B00033780196002B02D08021C90101E0A0214B
:10A9C0008902002209F088FA434B04AC1F7802F098
:10A9D00059FB051C681E85410AF0D5F83F4B421E05
:10A9E00090411A786D00531E9A413D4B80001B78B0
:10A9F000D20059425941FF3B5E1EB34109015B0140
:10AA00000B431F43374B3D431B7828436370019B27
:10AA100002431B782270012B10D102F08BFA030A3B
:10AA2000A370E070FFF7FCF8030A2371607102F075
:10AA300087FA030AA371E071082506E00A2002AB39
:10AA4000C01806210BF05CFB0225274E201C311C90
:10AA500008220BF037FD002837D00822211C301CBB
:10AA60000BF03FFD214EB088FFF702FF071CB088B6
:10AA7000FFF71CFFABB202AAD38006AD00280FD1AE
:10AA8000002F0DD131881A482A1C06976C602B8044
:10AA9000FFF7E4FE011E18D016480BF0E5FD14E0A8
:10AAA000281C10210BF02CFB104B291C1B88EC6080
:10AAB0002B803B1C5A1E93410133AB7002AB063313
:10AAC000AB600D4B1888FFF7CDFE0BB0F0BDC04654
:10AAD000E444002094440020F0440020503B002037
:10AAE000A0280020F144002019280020E84400207C
:10AAF000FFFF00007C800200E0440020F0B593B02E
:10AB000001250093102302922B4304AA13701023F3
:10AB10002B4353709378062202260C1C0BAF9343F1
:10AB2000334304AA03901C21381C93700BF0E8FAFD
:10AB300063082B405A003B78A108B3431343082213
:10AB4000294001919343C900E2080B432A400421A4
:10AB5000B2408B431A4340231021A00928408001B2
:10AB60009A43230902432B408A431B0113432022AB
:10AB700061092940490193430B433B70E3092B4092
:10AB8000191C7B78AB43181C230A2B405A00031C6A
:10AB90000B43B343134305AE7B70301C04AB03215E
:10ABA0007B610BF0ADFA12223378144208D0033ADD
:10ABB00093431D43131C154001331D43357001E0C1
:10ABC00000233370019B0F20002B09D0012305AA1D
:10ABD000517881430B43102103400B43537001E034
:10ABE000002373700622B378012193431A1C0223B9
:10ABF000640A13430C408B43234306AC201C1331DF
:10AC0000B3700BF07DFA039B66600693009B002BEC
:10AC100001D06B461B89238100236381189B029A14
:10AC2000A381009B0648191C23610BF01DFD054BF9
:10AC3000391C1888221C199BFFF70EFE13B0F0BDBB
:10AC40008F800200F244002070B588B03549102290
:10AC500004A80BF046FC344D04A8291CFFF704FEA1
:10AC6000031E5CD180222B7803AC5201228001208C
:10AC7000211C2E4AA370FFF7EDFD031E4FD12B7848
:10AC80002B4AA370082322802A4E00932A4B201CB3
:10AC900001932A49331C0222FFF730FF031E3ED1E5
:10ACA0002A782749A2702022218083210092254AF8
:10ACB000201C019289001A1CFFF720FF031E2ED1D1
:10ACC0002A782149A2700C222180832100921F4AF8
:10ACD000201C019289001A1CFFF710FF031E1ED1D1
:10ACE0002B781B4AA370142322800093194B201C3D
:10ACF00001931249331C0222FFF700FF031E0ED1FD
:10AD0000154C191C201C154A09F0BEF8031E06D16B
:10AD1000A0211A1C2068890209F0DEF8031C181C07
:10AD200008B070BD6C800200BA440020F2440020DC
:10AD30000110000019280020E84400201202000041
:10AD400002100000B2440020821000008C44002059
:10AD500003100000AA440020E4440020A1A901003F
:10AD6000014B18807047C046E0440020034B187820
:10AD7000013843425841C0B27047C0469444002055
:10AD8000002310B5091ACC1A002C03DDC45CD4547E
:10AD90000133F8E7CB43DB171940501810BDE5E548
:10ADA000F0B591B0071C0D1C161C0393002800D1B0
:10ADB00029E2C04B00241B88834200D11434231C99
:10ADC00064190096BC48391C2A1CA4B20BF04CFC38
:10ADD000A319202B02D92026361B36B2B74D002EE0
:10ADE00000DD07E200232B60B54B1B88BB4204D07B
:10ADF000B04B1B88BB4200D005E22B68012B00D86A
:10AE000001E2B04F7C783E78A21C03923D1C9A422E
:10AE100000D0E9E10122AC4B00201E70AB4B1A7050
:10AE2000FFF7BEFD972E00D137E11CD8902E47D0FA
:10AE30000BD8712E00D137E1722E00D137E1702E80
:10AE400000D0D1E100F0D6FACEE1922E00D1B5E0EB
:10AE500074D3952E00D104E1962E00D0C4E10020D9
:10AE600000F042FEC0E1A02E00D18BE119D89D2E4A
:10AE700000D14FE19E2E00D1EBE09C2E00D0B3E13B
:10AE8000934B07A81B7806704370924B06211B88D2
:10AE90001A12C370904B82701B881A120271437190
:10AEA00063E1B12E00D190E103D8B02E00D181E151
:10AEB0009AE1B22E00D18DE1B32E00D18FE193E162
:10AEC000012C00D890E1BB78FA781B02834E134323
:10AED0001E409E4200D087E1B30500D184E1A31E4D
:10AEE0000393082B00D97FE107AF00212422381CEF
:10AEF0000BF014FBA91C281D091908AA3E80FFF7B6
:10AF00003FFF039BFB1804330AAA934203D000229D
:10AF10001A700133F8E7381C00F02CFDA978EA78A4
:10AF20006F480BF0A1FB02342E1D2D19AE4241D00B
:10AF300031786C480BF098FB0136F7E7012C00D80C
:10AF400052E1BB78FA781B02674F13431F409F42C0
:10AF500000D049E19B0500D146E1A31E202B00D97A
:10AF600042E107AE00212422301C0BF0D7FAA91CC5
:10AF70000919281D08AA3780FFF702FF3419043485
:10AF800010AB9C4203D0002323700134F8E7301C3F
:10AF900000F0F0FCA978EA7854480BF065FB039BBD
:10AFA0002C1DED18AC4205D021784E480BF05CFB0F
:10AFB0000134F7E74E480BF057FB15E1132C00D88E
:10AFC00012E14C480BF050FBBE1C163731784A4852
:10AFD00001360BF049FBBE42F8D145480BF044FB6B
:10AFE00014261635311C1439A64210D22A786B78F3
:10AFF000100218430393031C49084F0005A83B5255
:10B000003E48039B0BF030FB02360235EAE72D4E3B
:10B010004C08311C002307AD2A1CB01C16316B6193
:10B020002B83FFF7ADFE221E032A00D90322520014
:10B0300003D00CA805A90BF054FA281C00F03CFB27
:10B040002F4CB11C201C14220BF04BFA201C142195
:10B050008BE02C480BF008FB00F0AAFC00F0BAFBD8
:10B06000C2E0012C00D8BFE0E30700D5BCE02648D1
:10B07000211C0BF0F9FABE1C3178727823480BF0D2
:10B08000F3FA3078737800021843023600F080FD3E
:10B09000731B023BA342EFD3A6E0002C00D1A3E038
:10B0A000BA781B4B1A709FE000F09CFA9CE000F00D
:10B0B0006DF999E08C440020A5800200BC4400207A
:10B0C000B2440020C0440020F1440020F04400209D
:10B0D000063400200A34002000340020FF43000022
:10B0E000BF800200A0800200FF630000DB8002003E
:10B0F000EF810200FA800200178102001C81020029
:10B1000095440020308102004181020053810200F9
:10B11000A02800203D4D07A82B7806704370002B17
:10B1200026D000223A4C827021783A4A3A4E8F005B
:10B13000BE591268013B921B160EC670160C0671A2
:10B14000160A4671354E82714A00965B2B70371293
:10B150000672334EC771925B5F231612467282727B
:10B16000002900D04B1E23700B21FFF7BDFB3BE0F5
:10B170008370C370037143718371C371037243722F
:10B180008372F1E7012C2FD1221C2648311C0BF0D1
:10B190006BFA0023244A25481370BB78002B03D098
:10B1A000012B03D1224813700BF05EFA0020FFF749
:10B1B000F7FB19E0002C17D0BA781E4B002A00D0FC
:10B1C00001221A70FFF7CAFB0EE0002C0CD0BA78EF
:10B1D000194BF3E7002C07D0BA78184BEEE7002C98
:10B1E00002D0BA78164BE9E70020164B1870FFF72B
:10B1F000D7FB08E0144803990019321C34190BF0EE
:10B2000079F92C60F0E511B0F0BDC046883200201D
:10B210000C340020F8320020206A0020BC6B002093
:10B220009C6C00206D81020094440020818102000A
:10B23000A48102009A280020982800204D3B00207D
:10B2400099280020F0440020C044002010B5018857
:10B25000041C12291ED00BD803292CD002D8022995
:10B260001CD011E0102913D02448112942D00BE042
:10B27000192911D003D8224814293BD004E05029C1
:10B280002CD02048512935D01F480BF0EDF933E080
:10B290001E482FE01E482DE01E482BE0017A1E4874
:10B2A0000BF0E2F91D491E4B0B6020238B80A08818
:10B2B000FFF7DCFA20E01B480BF0D6F9184B587862
:10B2C0001A78D978000210439A78090211435A7902
:10B2D0001C791202224312B2063308E012480BF026
:10B2E000C3F91E23E25E231CE088A18B2033FFF705
:10B2F00057FD01E00BF0B8F910BDC046E281020035
:10B30000008202004A820200C9810200D381020049
:10B31000F181020012820200208202001445002006
:10B32000F4440020308202003E82020038B5094D0C
:10B330000368041C581B4010013080B201380649D4
:10B340000CF0BEF9013189B249006D182560201C4E
:10B3500038BDC0469C6D0020FF03000070B5094E4B
:10B360000468051CA01B4010013080B2013806495A
:10B370000CF0A6F9013189B2490071182960201C2E
:10B3800070BDC0469C6D0020FF030000034A138877
:10B3900019B2002901DA5B42138070471C45002076
:10B3A00008B5FFF7F3FF08BD70B59208002A10D06A
:10B3B0000F240D78074E2B1143402340F05C012AE7
:10B3C00004D068400440305D023A00E000220131C0
:10B3D000ECE770BD5782020010B5041C0C22211C42
:10B3E0000F20FFF7E1FF0F2263789343184360704B
:10B3F00010BDE5E5002373B500258022084E12013B
:10B400009D5302339342F7D1802301AC5B01201C92
:10B410002380FFF7E1FF23883380024B1D8073BD3B
:10B420009C6D00201C45002010B50B4C10220F20F5
:10B43000211CFFF7B9FF002290420AD123885BBA92
:10B440009BB21B11934204D00449D80F9942424148
:10B45000D2B2101C10BDC0469C6D0020FF0300003E
:10B46000F0B5404B87B000229B5E061C002B65DBCD
:10B47000FFF7DAFF002801D1FFF7BCFF76BA3304EB
:10B480001B0F029301330193364A14880392002262
:10B4900023B2934201DB344AD21A029902318A4222
:10B4A00029D2002BF0DB314F2F49388840BA80B2C7
:10B4B00000114300FB185D7805932D096B1C2818BB
:10B4C00003930CF0FDF80131090104AB49BA19806E
:10B4D000181CFFF781FF04AB1B883B80039BE41A19
:10B4E000204B1C800023059A05A81380FFF71EFF40
:10B4F000013DF7D2C8E705AD002B21DB1B4FA4B2FD
:10B500003888194940BA80B20011201880B2013839
:10B510000CF0D6F8019B013188B24000E418039B7F
:10B520003F182E80281C1C80FFF756FF0F226B78D7
:10B53000381C53406B702B883B8011E000200FE0DB
:10B54000019B2E80E418039B281C1C80FFF744FFFE
:10B550000F226B7853406B7000232A881A80FFDE1D
:10B5600007B0F0BD1C450020FF0300009C6D0020CB
:10B57000F7B5071C00201A4B151C00229B5E0E1C01
:10B5800083422BDB6B1CFF305B0803401B01184020
:10B590003F023843FFF764FF0190071C01A8FFF743
:10B5A000C5FE03680193002D14D0FF2332789C431D
:10B5B0002243141C012D02D10136002505E07478C8
:10B5C000134024021C43023D023601A8FFF7C6FEC9
:10B5D0000480E8E7381CFFF7FFFE0120FEBDC046EF
:10B5E0001C450020F7B5FFF71FFF071E02D1FFF72C
:10B5F00001FF28E00025154E348864BAA4B2241156
:10B60000640034190F20211C1022FFF7CDFE002802
:10B6100002D10F4B9D4203D90E4B6D421D8012E0AB
:10B620006378A01B1B0901334010181880B2013841
:10B63000094901930CF044F801318CB2019B64007C
:10B640003419ED18DEE7381CFEBDC0469C6D0020A5
:10B65000FD0300001C450020FF03000008B5FFF7B4
:10B66000C1FF08BD10B586B06B4600BA49BA00905C
:10B670009980981D1221141C0AF042FD6B46211C72
:10B68000981D12220BF091F8694618221020FFF73E
:10B690006FFF06B010BD08B5FFF7E4FF08BD10B599
:10B6A0000024C382231C04838282CA5CC2540133F7
:10B6B000142BFAD110BDE5E5F8B5E023061C0025F2
:10B6C0000D4C1B01E718002D02D1A38A002B06D0D8
:10B6D000301C211C14220AF0F5FE002800D1251C84
:10B6E0001C34BC42EFD1002D04D0281C311C1A227E
:10B6F0000AF0F7FEF8BDC04620450020F8B5114C11
:10B70000071C261C251C201C391C142214350AF089
:10B71000D9FE00280DD11A34A54208D029880A483C
:10B720000AF0A2FF288800F0DFF90235F4E70120D3
:10B7300006E0E0231B011C34F3189C42E2D10020F8
:10B74000F8BDC0462045002067820200F8B5071CFE
:10B750000E1C1B4C251C201C391C142214350AF00D
:10B76000B1FE002822D11A34A5421DD029881548DF
:10B77000321C0AF079FF002E03D1288800F008FA65
:10B7800010E080231B029E4203D1C02128880902B9
:10B7900006E08023DB019E4204D1802128888901B4
:10B7A00000F010F90235DFE7012007E0E022044B4A
:10B7B00012011C349B189C42CCD10020F8BDC0461D
:10B7C000204500207D82020008B50021FFF7BEFF62
:10B7D00008BDE5E5E02108B5024809010AF090FC42
:10B7E00008BDC0462045002070B50E1C98B0041C52
:10B7F00001A8151C01F054FB301C0AF0CFFF311CCE
:10B80000021C01A801F05AFB281C0AF0C7FF291CE2
:10B81000021C01A801F052FB01A801F058FB231CF7
:10B8200026C826C306C806C3201C18B070BD70B554
:10B83000151C0E1C041C98B001A801F031FB311C32
:10B840002A1C01A801F03AFB01A801F040FB231CCF
:10B8500026C826C306C806C3201C18B070BD38B55C
:10B86000041C081C0D1C0AF099FF291C021C201C3A
:10B87000FFF7DDFF201C38BD70B592B006AD281C67
:10B880001A49FFF7ECFF291C194A1A4B0BA8FFF7BE
:10B8900006FF0BA8FFF710FF68461749FFF7DFFF09
:10B8A0002B1C6A4643CA43C303CA03C3134A291C59
:10B8B000134B0BA8FFF7F3FE0BA8FFF7FDFE68463E
:10B8C0001049FFF7CCFF6C462B1C07CC07C306CCF6
:10B8D00006C3C022291C12020B4B0BA8FFF7DFFE88
:10B8E0000BA8FFF7E9FE12B070BDC046A1820200AE
:10B8F00001C0000001E00000627E020002C0000002
:10B9000002E00000A382020008E0000008B5FFF793
:10B91000B3FF08BD08B50248FFF756FF08BDC04693
:10B920002053002008B50248FFF7E8FE08BDC046D6
:10B930002053002000230021044AD21851611183B2
:10B94000E0221C3312019342F5D1704720450020BC
:10B9500010B506480021064A08F096FA041E03D0E6
:10B9600000210A1CFCF762FC201C10BD3C5C00207E
:10B970009DBA010090220D4B120130B59C18002297
:10B980001988002A01D1002902D005888D4200D1F2
:10B990001A1C2433A342F3D1002A06D0131C16C864
:10B9A00016C316C816C316C816C330BD34530020BC
:10B9B000902108B5024809010AF0A2FB08BDC04663
:10B9C00034530020F8B503B2061C0F1C002B02DA1A
:10B9D00012232B4C06E040232A4C03E02288B2427B
:10B9E00003D02434013BF9D248E03BB2002B0FDAFC
:10B9F0000023254A5900885A002801D0B04239D185
:10BA00005652C021214B09021868002208F064FA3E
:10BA1000C022311C8025D2011140ED01A9421ED067
:10BA200080239B01914205D0994227D1606800F0A4
:10BA300091FB23E03B4001D0154A16805A1E9341EA
:10BA40003D409E036F1EBD4112480AF00DFE321CA0
:10BA5000ED03201D2A43202100F042F90EE00E489C
:10BA60000AF002FEFEF750FB201DFEF732FBFEF748
:10BA7000FBFA03E00133032BBBD1C9E7F8BDC04695
:10BA80000083020034530020365C00203C5C002020
:10BA9000345C0020AC820200C382020010B5002496
:10BAA000094BE05A002803D08021C901FFF78AFF23
:10BAB0000234062CF4D1C021044B0902186800227C
:10BAC00008F00AFA10BDC046365C00203C5C00203D
:10BAD00008B5044B1888002803D080218901FFF79E
:10BAE00071FF08BD345C0020002310B5214A995A2B
:10BAF000141C814201D10021D1520233062BF5D111
:10BB00001D4B1A88824201D100221A8003B2002BF9
:10BB100002DA1223194A06E04023194A03E0118889
:10BB2000814203D02432013BF9D213E0C0238022AA
:10BB3000DB011840D201904207D098420AD1114847
:10BB40000AF092FD00F00AF904E00F480AF08CFDBB
:10BB5000FEF7DEFA2388002B0BD16388002B08D177
:10BB6000A388002B05D1094B186808F001FAFFF7EC
:10BB7000AFFF10BD365C0020345C00200083020063
:10BB800034530020D7820200EC8202003C5C00208B
:10BB900008B50021FFF716FF08BD08B5FFF7F8FF4D
:10BBA00008BD08B5FFF7A0FF08BD08B5FFF7D0FE38
:10BBB00008BDE5E5F7B53C4E3368002B17D03B4C8C
:10BBC00022689A4202D30023236033602368002B4B
:10BBD0002FD1374B1D78002D0CD1281C356008F073
:10BBE00087FF281C08F089FF281C08F08BFFFFF74F
:10BBF0006FFF58E0FF2D01D0013D1D700123236030
:10BC000017E0326893424ED2294A0F20D75CD218EF
:10BC1000023323603B1C527883430192102B0CD0DB
:10BC2000244D202B25D0002228680621226008F010
:10BC300053F92368002BE4D135E01F4B1D783F2DCD
:10BC400000DD3F25019B9D4200DD1D1C0820384082
:10BC500000D0281C08F04CFF0420384000D0281CDD
:10BC600008F04BFF0220384000D0281C08F04AFFA3
:10BC7000DFE7384008F058FF1423019A5343DC17DC
:10BC80005A0CE1031143FA22D80300235200801812
:10BC90005941FA22002392000BF00EFE0022011CF3
:10BCA000286808F019F9F7BD485C0020405C0020C6
:10BCB0004C5C0020445C0020A028002010B5064801
:10BCC0000021064A08F0E0F8041E03D000210A1CF7
:10BCD000FCF7ACFA201C10BD445C0020B5BB010091
:10BCE000F8B5194D061C2B680C1C002B06D0174B01
:10BCF0001878002802D113B2002B24DA00208442E5
:10BD000021D033787F2B1ED9104B5204D20F1A70DA
:10BD10000F4B186808F02CF9202C00D920240D4F67
:10BD2000221C381C311C0AF0E5FB00220A4B2C6057
:10BD30001A600F233A78134000D1FF2300203B7094
:10BD4000FFF738FF0120F8BD485C002018280020CC
:10BD5000445C00204C5C0020405C002008B5084B8F
:10BD6000186808F005F9002008F0C2FE002008F06D
:10BD7000C4FE002008F0C6FE0022024B1A6008BD77
:10BD8000445C0020485C002008B5FFF797FF08BD21
:10BD900008B5FFF7E3FF08BD70B5224B1D68191CFD
:10BDA000002D3ED0204B1A68AA4201D300221A600F
:10BDB0001A68002A09D11D480278002A01D10A60B8
:10BDC0002FE0013A027001221A601C68221C002A2E
:10BDD00026D0AA4224D20F2614480024115C8018D1
:10BDE00040780232B1431029F1D02029EED11A60F7
:10BDF00014234343DD175A0CE9031143FA22D803F5
:10BE00000023520080185941FA22002392000BF0BF
:10BE100053FD074B011C221C186808F05DF800E078
:10BE20001A6070BD745C00206C5C0020785C00209F
:10BE3000705C002010B506480021064A08F024F87E
:10BE4000041E03D000210A1CFCF7F0F9201C10BDD1
:10BE5000705C002099BD010008B5FFF7EBFF08BD3D
:10BE6000002108B50A1CFCF7E1F908BD1FB50B78E5
:10BE7000052B04D0062B04D0042B1BD105E0012296
:10BE800000E000220C4B1A7014E08B79022B11D1C8
:10BE9000CC79002C0ED10D336B4400930748211C44
:10BEA0000122231C03F09AFF002803D0211C221C2E
:10BEB000FCF7BCF91FBDC046985C0020A45C0020C4
:10BEC00073B5274B1C78002C49D10023254D264EF5
:10BED000EB56581C04281DD80BF058FB18030C1403
:10BEE0003C00224B01241A68002A16D1306808F061
:10BEF0003FF834E01D4BFF241A6880235B021A4090
:10BF00000BD029E0194B03241A6806E00024174BD4
:10BF10001C6018E0013316D0221C01AB1A801448B3
:10BF20000121022203F020FF08280CD005D9114B73
:10BF3000984208D0104B984205D0002803D0002129
:10BF40000A1CFCF773F930680C4900222C7007F0CA
:10BF5000C3FF04E0FF2400E002240022DDE773BDFC
:10BF60001D5E00201C5E00209C5C0020A05C002068
:10BF7000A45C0020043000000134000066060000CC
:10BF8000F0B5554899B002AF0AF06EFB534A002154
:10BF9000534807F079FF381C10210AF0B1F86846C1
:10BFA00008210AF0ADF81025082301243B802B1C42
:10BFB00023433B712B1C23437B712B1C2343BB71FD
:10BFC00002233B810223BB722B1C23433B732B1C9C
:10BFD00023437B732B1C2343BB7300226B469A7055
:10BFE00002221C80DA702B1C6A46234353712B1CDF
:10BFF00006AE23439371BC70FC70FC72301C482168
:10C000000AF07EF8374B00220693374B3472736088
:10C01000002373720223B3726B467361002333767D
:10C020000023F3617D33B384304B347433620223D5
:10C03000FF333386B73B6B441A704B2303226B44A8
:10C040001A704E2300226B441A7000232A1CB3631B
:10C05000224311AB1A702A1C13AB22431A704523DA
:10C0600000226B441A704D236B441A702A1C5B2308
:10C0700022436B441A702A1C17AB22431A705D23AB
:10C0800000226B441A702A1C5E2322436B441A70F0
:10C090002A1C5F2322436B441A702A1C15AB2243CF
:10C0A0001A702A1C552322436B441A70562300220F
:10C0B0006B441A7057232C436B441C70F760311C7F
:10C0C0000B4803F02FFB041E03D000210A1CFCF7D1
:10C0D000ADF8201C19B0F0BD05860200C1BE0100FC
:10C0E0009C5C00206DBE010061BE010088850200DD
:10C0F000A45C002010B5041C0B48211C0AF0B4FA03
:10C100000A4B1B78002B0DD1094B1B78002B09D152
:10C11000084B1A68002A05D11C60074B21211868BA
:10C1200007F0DAFE10BDC04610860200985C0020C1
:10C130001D5E0020A05C00209C5C002008B5011C56
:10C14000014803F017FA08BDA45C002008B5FFF70A
:10C1500017FF08BD08B5FFF7CDFF08BD08B5FFF70D
:10C16000EDFF08BD0022014B1A7070471D5E0020D4
:10C1700063DF7047002108B50A1CFCF757F808BDBB
:10C1800037B50F4B1A880F4B9A4218D06B460E4C9E
:10C19000DD1D201C291C05F0DDFE002803D0002138
:10C1A0000A1CFCF743F82D78002D08D1201C05F05F
:10C1B000A3FE002803D0291C2A1CFCF737F837BD42
:10C1C0004C5E0020FFFF0000C15E0020F0B5037848
:10C1D0008FB0042B00D9E5E2041C181C0BF0E0F929
:10C1E0000500DF022000E2023301CE480AF03CFAEB
:10C1F000642001F0ADFBCC4C201C04F0B7FC0028FF
:10C2000003D000210A1CFCF711F8201C04F0B8FC34
:10C21000002803D000210A1CFCF708F8C348BFE23D
:10C22000637A5B0700D5BDE2C14D231C2A1C261C86
:10C23000083303CB03C2BF480AF016FA2B78BE4A74
:10C240009B009958BD480AF00FFAAB78BC4A9B0096
:10C250009958BC480AF008FAE978BB480AF004FA91
:10C260006968BA480AF000FAB9480AF0FDF96B7833
:10C270000836DB0702D5B7480AF0F6F96B789B075A
:10C2800002D5B5480AF0F0F96B785B0702D5B348E0
:10C290000AF0EAF96B781B0702D5B1480AF0E4F915
:10C2A0006B78DB0602D5AE480AF0DEF9237A002B64
:10C2B00000D198E0022B00D074E2A37A012B7DD14B
:10C2C0000022A84BE0681A70FDF7E6F9471D3D1CF7
:10C2D00001902878002804D00AF02EFB2870013540
:10C2E000F7E7019E2736351C2878002804D00AF08D
:10C2F00023FB28700135F7E7019D6B350095009B06
:10C300001878002806D00AF017FB009B187001333C
:10C310000093F4E709A8391C2A1CFFF765FA09A85D
:10C32000FFF7ECF9002805D08F480AF09DF98F48F7
:10C33000391C0EE009A8311C2A1CFFF755FA09A880
:10C34000FFF7DCF9002807D089480AF08DF9311C85
:10C3500088480AF089F929E009A8391CFFF77FFA13
:10C3600009A8FFF7CBF9002805D083480AF07CF92B
:10C370007E48391C20E009A8311CFFF770FA09A893
:10C38000FFF7BCF9002805D07C480AF06DF9794820
:10C39000311C11E009A8291CFFF761FA09A8FFF771
:10C3A000ADF9002805D076480AF05EF97548291CD9
:10C3B00002E0019B744819680AF056F9E068FDF73D
:10C3C000EFF9002802D0E068FDF712FA6F48E16843
:10C3D0000AF04AF9E068FDF7A5FA002801D06C4898
:10C3E000DEE16C48DCE1637A5B0700D5DAE1A37A31
:10C3F000012B01D15B4A1370E168674809AD0AF06F
:10C4000033F9A17AE0682A1CFDF732FA042801D139
:10C4100062480BE0072801D1614807E0002804D1F9
:10C42000297860480AF020F902E05F480AF01CF918
:10C43000301C04F021FC002800D1B3E100210A1CCB
:10C44000FBF7F4FEAEE1A17DE369CA009A1820690A
:10C45000A38A5268FDF736F9072801D14C4804E059
:10C46000002801D14B4800E04F480AF0FDF8206950
:10C47000FDF786F9002800D194E12069FDF790F9D5
:10C48000051E00D08EE1216948480AF0EDF82069C8
:10C49000FDF702F9041C461DF577311C44480AF0EB
:10C4A000E3F8271C231C273746331D70391C4148ED
:10C4B0000AF0DAF8231C211C68331D7049313E480C
:10C4C0000AF0D2F8231C8A331D70251C6B353B48BB
:10C4D000291C0AF0C9F80096009B1878002806D09D
:10C4E0000AF02AFA009B187001330093F4E70097D2
:10C4F000009B1878002806D00AF01EFA009B1870DE
:10C5000001330093F4E70095009B1B780193002B07
:10C5100056D001980AF010FA009B1870013300936E
:10C52000F2E7C0462C860200405E002062860200D0
:10C53000505E00207A860200208602008986020072
:10C54000788A02009A860200AB860200BC8602004E
:10C55000CD860200D5860200DE860200EA86020051
:10C56000F9860200C05E00200B8702002F870200C0
:10C57000478702006D8702007C8702009B870200CC
:10C58000BD8702003B870200DC87020005880200AD
:10C590001B8802002D880200378802004D880200A7
:10C5A0006288020081880200988802000F890200D8
:10C5B0002B8902003A890200498902005889020049
:10C5C000231C91331B78022B00D1EBE0013B594235
:10C5D0005941CB0300936379002B2BD02B78002B90
:10C5E00028D009A8311C2A1CFFF7FEF809A80099D9
:10C5F000FFF7ACF800281DD06B4F02AC311C2A1C91
:10C60000201CFFF7F1F83B1C07CC07C306CC06C380
:10C61000664C206807F0ACFC654B019A19682068ED
:10C6200007F05AFC63480AF01FF8311C62480AF010
:10C630001BF8ACE0231C0833DB7F002B2ED0231C1F
:10C640006B331B78002B29D009A8391C2A1CFFF753
:10C65000CBF809A80099FFF779F800281ED0524EB0
:10C6600002AC391C2A1C201CFFF7BEF8331C07CC77
:10C6700007C306CC06C34D4C206807F079FC4C4B31
:10C6800000221968206807F027FC4C4809F0ECFFED
:10C690004B48391C09F0E8FF4A4879E06379002BE0
:10C6A00024D009A8311CFFF7DAF809A80099FFF790
:10C6B0004DF800281AD03C4D02AC311C201CFFF76D
:10C6C000CEF82B1C07CC07C306CC06C3374C20681A
:10C6D00007F04EFC364B00221968206807F0FCFB7F
:10C6E000394809F0C1FF3448311C55E0231C083398
:10C6F000DB7F002B24D009A8391CFFF7B0F809A86C
:10C700000099FFF723F800281AD0274D02AC391CF6
:10C71000201CFFF7A4F82B1C07CC07C306CC06C3CC
:10C72000224C206807F024FC214B00221968206865
:10C7300007F0D2FB254809F097FF2148391C2BE070
:10C74000231C6B331B78002B24D009A8291CFFF76E
:10C7500086F809A80099FEF7F9FF00281AD0124EB2
:10C7600002AC291C201CFFF77AF8331C07CC07C346
:10C7700006CC06C30D4C206807F0FAFB0C4B206872
:10C780001968002207F0A8FB114809F06DFF114855
:10C79000291C01E01048216809F066FF02E00F48FB
:10C7A00009F062FF0FB0F0BD20530020A46B002001
:10C7B0009C2800200B8702009E8802004787020009
:10C7C000B8880200C88802007C8702009B870200AC
:10C7D000BD870200AB880200DC870200D58802001A
:10C7E0001FB5484809F040FF04F032FF002803D08D
:10C7F00000210A1CFBF71AFD43480021434A07F0B9
:10C8000043FB002803D000210A1CFBF70FFD404822
:10C8100005F0C2FD002803D000210A1CFBF706FD2D
:10C8200001223C4B52423C483C491A80FFF7A0FC95
:10C83000002803D000210A1CFBF7F8FC6B4638489F
:10C84000991DFFF795FC002803D000210A1CFBF777
:10C85000EDFC6B463348991DFFF78AFC002803D096
:10C8600000210A1CFBF7E2FC6B462F48991DFFF7DD
:10C870007FFC002803D000210A1CFBF7D7FC002115
:10C88000082202A809F04AFE00202849202204F0CC
:10C89000DFF9002803D000210A1CFBF7C7FC0120A8
:10C8A0002349202204F0D4F9002803D000210A1CD7
:10C8B000FBF7BCFC02201F49202204F0C9F9002824
:10C8C00003D000210A1CFBF7B1FC03201A492022E7
:10C8D00004F0BEF9002803D000210A1CFBF7A6FCD7
:10C8E000164B17480293174B02A9039304F008F95B
:10C8F000041E03D000210A1CFBF798FC201C04B086
:10C9000010BDC046678902007C5E002081C1010025
:10C91000C15E00204C5E00208F8B0200785E0020FC
:10C920007F8B02006F8B02005F8B0200585E00203D
:10C93000A05E00201E5E0020805E0020CDC10100B0
:10C94000405E002075C1010010B5041C0948211C7F
:10C9500004F0F2FE0848211C03F0AAFF2388102BE4
:10C9600004D0112B05D10122524200E0A288034BD2
:10C970001A8010BDC65E0020405E00204C5E002084
:10C9800038B50C1C051C1F4809F06EFE1E48291CFA
:10C99000221C03F085FF2378122B10D0152B1CD0FE
:10C9A000112B2ED1291C0422184809F09AFDA02130
:10C9B000174B89021868002207F08EFA1BE0134813
:10C9C00005F0EAFC002803D000210A1CFBF72EFC2E
:10C9D0000F4B186807F0CCFA0DE00E4809F044FE42
:10C9E00063680D48198804F06FFE112803D10B48C5
:10C9F00009F03AFE05E0002803D000210A1CFBF7ED
:10CA000015FC38BD73890200405E0020C15E002025
:10CA10007C5E002089890200C65E0020A789020092
:10CA200008B5FFF7DDFE08BD08B5FFF78DFF08BDAF
:10CA300008B5FFF7A5FF08BD014B18787047C04641
:10CA4000785E0020014B18787047C046C05E002019
:10CA50000122014B1A707047355F00200122014B03
:10CA60001A707047345F0020F7B52B4B1B78002BF2
:10CA70002DD12A4B1E78002E29D1294B1A780193EB
:10CA8000002A24D0274F381C06F00CFD264D2868BC
:10CA900001F048F8254C206801F044F8381C06F0F5
:10CAA0005DFD002803D0311C321CFBF7BFFBA02228
:10CAB00003212B68D205C133FF339B0099502368B3
:10CAC000C133FF339B0099500023019A1370184B18
:10CAD0001E78002E1ED1174C2378002B1AD0164F2B
:10CAE000381C06F0DFFC154D286801F01BF8381CD7
:10CAF00006F034FD002803D0311C321CFBF796FBF6
:10CB0000A02203212B68D205C133FF339B0099502B
:10CB100000232370F7BDC046885F0020285F0020F7
:10CB2000295F0020B08A02002C5F0020305F0020C7
:10CB3000615F0020605F0020C08A02005C5F00200F
:10CB4000F0B5174E87B03578002D26D101AC291CE1
:10CB50001422201C09F0E2FC0223E360FA239B006C
:10CB60002361104B104F1B68381C01930F4B211C85
:10CB70001B680F4A63600123237263720D4B1D70A3
:10CB800006F006FB002803D0291C2A1CFBF74EFBED
:10CB9000381C06F033FC0123337007B0F0BDC046EB
:10CBA000295F00202C5F0020B08A0200305F002047
:10CBB00051CA0100355F0020064B1860064B00206B
:10CBC0001960064B03211A60A022054BD205D150F3
:10CBD0007047C0462C5F0020305F00205C5F002063
:10CBE0004407000010B5041E01D0FFF7A9FFA2B250
:10CBF0000548002106F0BCFA1128F8D0034B1C7040
:10CC0000FFF732FF10BDC046B08A0200885F0020E7
:10CC100010B5041E01D0FFF793FFA2B20548012111
:10CC200006F0A6FA1128F8D0034B1C70FFF71CFF82
:10CC300010BDC046B08A0200285F0020F0B5061C77
:10CC400089B01D4F002829D01C4B1D780193002D61
:10CC500024D103AC291C1422201C09F05FFCFA2209
:10CC6000012392002261164A5B421268636002331C
:10CC7000E3602372134B0392381C211C124A1D706F
:10CC800006F086FA002803D0291C2A1CFBF7CEFAEE
:10CC9000381C06F0B3FB0123019A1370B2B2381CA2
:10CCA000002106F065FA1128F8D0084B1E70FFF736
:10CCB000DBFE09B0F0BDC046C08A0200605F002004
:10CCC0005C5F0020345F00205DCA0100615F0020CE
:10CCD000021C4032904203D003681BBA08C0F9E737
:10CCE0007047021C40305432904203D003681BBA94
:10CCF00008C0F9E77047E5E5F0B5041C85B0FFF71B
:10CD0000E7FF236CA16C0293636CE26C0193236DCB
:10CD1000039300230F2B06DC101C019D4840284084
:10CD20005040304D2FE01F1C0F200D370740BD0035
:10CD30001F1C1E1C083707400640BF002D593F59D5
:10CD4000B600A6196F4035686F409D1C28408000D2
:10CD5000005947401F20C7413760132BDCDD081CFA
:10CD6000019D272B03DC684050401F4D0BE03B2BFF
:10CD700006DC2E1C284310400E4030431B4D02E0C1
:10CD800068401B4D50401B270F264019029D1E4036
:10CD9000FD41B60036590133AF190226039D3818FC
:10CDA0004019019D0392F5412E1C029D0195502BC7
:10CDB00003D00A1C0290311CACE7236C18182064C5
:10CDC000606C2B1C844663446364A36C9E19E36C03
:10CDD000A6645918236DE1649A1800232265A3659F
:10CDE00005B0F0BD9979825AA1EBD96EDCBC1B8FDE
:10CDF000D6C162CA08B5836D5A1C8265C154836D61
:10CE0000402B01D1FFF778FF08BDF8B5051C141CB5
:10CE1000002C1BD04020AA6D231C801A844200D90C
:10CE2000031CA8180022CE189F1A002F03DD8F5C68
:10CE300087540132F8E7AA6DE41A9B18AB65402BC2
:10CE400002D1281CFFF758FF311CE1E7F8BD10B5EF
:10CE5000041C8021FFF7CEFFA36D382B0BD9221CB9
:10CE6000E3184032934203D0002119700133F9E7EF
:10CE7000201CFFF741FF221CA36D3832E3189342B8
:10CE800003D0002119700133F9E7636D201C5A0F9C
:10CE9000DB0012BA1BBAA263E363FFF72DFF10BDDC
:10CEA000002310B583654365034B403016CB16C095
:10CEB00006CB06C010BDC046C88A020038B5051CA6
:10CEC000141CFFF7A2FF6B6D1C196C6538BD10B503
:10CED000041CFFF7BCFF201CFFF703FF201C4030A1
:10CEE00010BD7047101C70477FB5054901A8FEF7BB
:10CEF000B6FC01A80021FEF729FC07B000BDC04622
:10CF0000A382020007B50023694602226846019306
:10CF10004B700A7007F08AF800F092FC00F0F8FC01
:10CF2000034B1B78834201D0FFF7DEFF07BDC046ED
:10CF30009C5F0020014B18687047C046A05F00202E
:10CF4000014B18687047C046A85F002008B500F084
:10CF50006FFC01235840C0B208BDE5E508B500F0FC
:10CF6000E1FB0122014B1A7008BDC046895F002019
:10CF7000F0B587B000F0DCFB354C2378002B18D0DF
:10CF800000F056FC051E14D129E00AF0A3FB314B3A
:10CF9000051C186000F0BCFC002398424CD02E4ABF
:10CFA000D1184868854240DC0B782C4A1370002366
:10CFB000237000F0ADFC2A4B051C1A781C1C824221
:10CFC00043D0002802D0FFF78FFF06E001A82549D3
:10CFD000FEF745FC01A8FEF791FB257035E000F057
:10CFE00091FC214B214E1860214B22495843224B82
:10CFF0000013186033680F1C9A0050505A1C1F4BC6
:10D000003260186801301860032A00DD356003289B
:10D0100001DD04221A6019680023181C8B42B4DA5F
:10D020009A00BA5801338018F8E70833282BB6D194
:10D0300008E00833282B05D0114AD11848688542EA
:10D04000F7DCB1E70132D37FAFE707B0F0BDC046F0
:10D05000895F0020A05F0020242800208A5F002034
:10D060009C5F0020A3820200A85F0020B05F002028
:10D07000714500008C5F0020AC5F0020A45F0020A1
:10D080004C28002008B500F043FC08BD08B5FFF7A8
:10D0900039FF08BD0020014B185670478A5F0020F9
:10D0A00008B5FFF75BFF08BD08B5FFF74FFF08BDE8
:10D0B00008B5FFF75DFF08BD1423F0B5002489B063
:10D0C0000693244B02900793071DE3B201936B462E
:10D0D00021481B7905A9837005F096F8051C1F48A7
:10D0E000291C09F0C1FA0026B30702D11C4809F037
:10D0F000BBFA079B1B48995D0136039309F0B4FA0C
:10D10000142EF1D1184809F0AFFA002D02D1079B77
:10D110001B6907E0154B9D4202D0154B9D4207D17C
:10D1200001235B426A463B60029B12791A5504E078
:10D130000021281C0A1CFBF779F807980021069AA1
:10D1400009F0ECF90437012C01D00124BDE709B046
:10D15000F0BDC046C45F0020C05F0020DC8A020032
:10D16000998D0200A0800200EF8102001080000073
:10D17000408000000122002310B552424B60CA607B
:10D18000043002684C68944203D2541C01D04A60B7
:10D190000B700268CC68944203D9541C01D0CA6059
:10D1A0000B720430012B01D00123EAE710BDE5E545
:10D1B0001423F7B5314C324F00900E1C081C211C73
:10D1C0006360A76005F020F8051C381C002D0FD007
:10D1D0002C4B9D4202D02C4B9D4204D114210022A5
:10D1E00009F09CF904E00021281C0A1CFBF71EF83A
:10D1F0002A1CB178254809F037FA254809F034FA95
:10D200000025AB0702D1234809F02EFA224FA3686C
:10D21000381C595D013509F027FA0197142DF0D11A
:10D220001E4D0027281C09F01FFAB178009BA0684A
:10D230008900591804310422103009F052F91848B5
:10D2400009F012FABB0702D1124809F00DFAA368DF
:10D250000198D95D013709F007FA142FF2D1281C83
:10D2600009F002FA301C211C04F05CFF002803D0F6
:10D2700000210A1CFAF7DAFFF7BDC046B45F0020B0
:10D28000D85F00201080000040800000F08A02007B
:10D29000108B0200998D0200A0800200EF81020035
:10D2A0001A8B020071DF704713B56846FFF7FAFF6B
:10D2B0006B460B499A780B485B7809F0D5F90A4818
:10D2C00009F0D2F906246B460848195D013C09F0C3
:10D2D000CBF9002CF7D1064809F0C6F913BDC046BA
:10D2E0006F7E0200248B0200368B0200A0800200B9
:10D2F0008689020008B5FFF7D7FF08BD03210A4859
:10D3000002680A430260094802680A430260084949
:10D31000084A094B9B1A03DD043BC858D050FBDC7C
:10D320000648804706480047240500405405004051
:10D33000D08D0200002800203829002051D30100A0
:10D3400021810100FEE7FEE7FEE7FEE7FEE7FEE7DC
:10D3500010B51B4A1378111C012B19D1194B1B68EE
:10D360001B0715D1184BE0241A68F023101C184035
:10D3700022420BD1154A12681A4209D1144A154BA0
:10D380001A608022144B12021A6001E03028F1D09A
:10D390000B68DBB2012B12D10A4A126812070ED1B8
:10D3A000F021094A12680A40402A08D1074A126847
:10D3B0000A4204D1C1228021D200C9058B5010BD80
:10D3C000E00F00F0E40F00F0E80F00F0EC0F00F0C9
:10D3D000DFFF07C004050040186C0040082108B5B5
:10D3E0000A1C012007F002FC012007F017FE0020B4
:10D3F00007F0CEFC002007F0C3FC0023044A1370A2
:10D40000044A1370044A1360044A136008BDC046FE
:10D41000F05F00200860002010600020EC5F00201A
:10D4200008B5012007F0B4FC07F0B6FC322007F085
:10D43000B7FC0122014B1A7008BDC046F05F002006
:10D44000014B18687047C04610600020014B1868F7
:10D450007047C046EC5F0020034B18680138434218
:10D460005841C0B27047C0460C6000200122002025
:10D47000034B1B68023B9A424041C0B27047C04612
:10D480000C60002070B507F00BFC0A4D061C2B68E1
:10D49000C41A094B1B68012B02D12860074B05E019
:10D4A000FFF7E4FF002804D0054B2E601A68A4188B
:10D4B0001C6070BDF85F00200C6000201060002030
:10D4C000EC5F002008B5012007F05AFC07F05CFC77
:10D4D000322007F05BFC07F0B9FB0122034B1A7006
:10D4E000034B1A88034B1A8008BDC0460860002011
:10D4F000F25F0020F45F002008B5002007F040FC38
:10D500000023024A1370024A138008BD08600020FD
:10D51000F45F0020014B18787047C0460860002077
:10D52000014B18607047C0468C6D0020014B18807D
:10D530007047C046F25F0020002373B5009301934B
:10D540000022835E1B1103800222835E1B11438035
:10D550000422835E1B11838007F0A6FB1D4A1388FB
:10D5600019B2002906DC1C4B1B78002B04D0FFF7F6
:10D57000C3FF01E0323B1380184C684622686368A1
:10D5800007F068FB22686368061C01A807F074FBBB
:10D59000051C2068616807F005FC206861680023AD
:10D5A0000F4A12184B4122606360012E02D10D4BCD
:10D5B0001B689847022D0AD0032D05D0012D08D1F4
:10D5C000094B019A1A6004E0074B019A1A60FFF7B1
:10D5D00059FF73BDF45F0020086000200060002048
:10D5E00050C300008C6D00200C6000200122014B14
:10D5F0001A707047156000207047E5E5002008B5F7
:10D60000011C054A05F056FA002803D000210A1C27
:10D61000FAF70CFE08BDC04691D601000E4B0F4A2A
:10D620001B68002B15D0032B14D90D4B0D4A1B681A
:10D630000D499B089BB29818084A884201D80223DA
:10D6400007E00A495B180A498B4201D8012300E030
:10D65000032313707047C046206000202C60002018
:10D660003860002010F3FFFF09120000E8F6FFFF0A
:10D67000D503000008B50023034A1360034A136072
:10D68000FFF7CCFF08BDC0462060002038600020B6
:10D6900037B5684606F0A0FC002803D000210A1C1C
:10D6A000FAF7C4FD1B4C1C4D2368012B12D92968C5
:10D6B00001AA009806F09AFC22681849019B022AE8
:10D6C00002D19BB29B0004E008689BB21A18800844
:10D6D000131A0B60009B2B6023685A1C01D0013386
:10D6E00023600F4C206806F043FC002803D0002183
:10D6F0000A1CFAF79BFD802120680902002206F02F
:10D70000EBFB002803D000210A1CFAF78FFDFFF77E
:10D7100085FF37BD20600020286000203860002091
:10D720003C6000200122014B1A70704740600020CD
:10D7300070B5364A1378151C012B07D0002B57D033
:10D74000022B61D1002332490B705CE0314C207810
:10D7500003284BD809F01AFF021D32402E4B1A78CD
:10D760001E1C002A01D1012340E02C4BA421186883
:10D77000002206F0B1FB002803D000210A1CFAF7B2
:10D7800055FD0A20FCF738FB00233370013323706A
:10D790002CE0FCF729FB061EE5D1214B622118681D
:10D7A000321C06F099FB002803D0311C321CFAF71A
:10D7B0003DFD00221B4B1A7002230BE0194B1B7816
:10D7C000002BD0D007F00EFA174B18600920FCF799
:10D7D00013FB03232370C6E7FCF706FB061EC2D12A
:10D7E0000E4B2070186806F0C3FB331C2B700BE047
:10D7F0000E4B1B78002B01D0022304E0064B1B7854
:10D80000002B01D00123137070BDC0461C600020A6
:10D81000146000203460002040600020246000205C
:10D82000186000201560002030600020416000205A
:10D83000024B1878431E9841C0B270471C6000200C
:10D8400013B5A0238021264ADB05890299500321C4
:10D85000244A254899500021244A06F015FB002847
:10D8600003D000210A1CFAF7E1FC21480021214ADB
:10D8700006F00AFB002803D000210A1CFAF7D6FCA8
:10D880001D4801211D4A06F0FFFA002803D000219F
:10D890000A1CFAF7CBFC00F0ADF8041E07D100F02B
:10D8A00081F8002803D0211C221CFAF7BFFC0024B9
:10D8B000032301A90120124A0B704B708C70CC70AD
:10D8C00000F06EF9A04203D0211C221CFAF7AEFC36
:10D8D0000120011C00F0D0F9FCF7A2FA16BDC046E9
:10D8E0000C0500004407000018600020EDD5010081
:10D8F0003C60002075D6010024600020F9D50100AD
:10D90000FDD50100014B18687047C046306000200B
:10D91000034B1878013843425841C0B27047C046A3
:10D920002C600020034B1878023843425841C0B2A3
:10D930007047C0462C60002001220020034B1B785A
:10D94000013BDBB29A424041C0B270472C600020DC
:10D9500082B00190019B002B12D0019B0948013B32
:10D9600001930138C046C046C046C046C046C046C6
:10D97000C046C046C046C046C046C046F1D1E9E7F1
:10D9800002B07047E7030000012205498300CB186D
:10D9900052425A60032802D9081844300271704775
:10D9A0004460002038B5114D08202B78002B1BD186
:10D9B0001A1CFF212C320133A954202BF8D100244A
:10D9C000201C0134E4B2FFF7DFFF0A2CF8D1062057
:10D9D000012100F02DFA8021C123054A9B00090690
:10D9E000D150012300202B7038BDC0464460002078
:10D9F00000600040024B1878431E9841C0B2704747
:10DA000044600020F0B50425274A08231418283460
:10DA10006557013546D18B78002B2BD000239C0015
:10DA200015196E68013621D112182832137100239E
:10DA3000A2266B601D4BF600E3189F591C4C0A7818
:10DA40003C404D789C5180242D0564032540C02422
:10DA50001204A4022240F824154364010202144077
:10DA60002A1C9F5922433A439A5105E00133042B63
:10DA7000D5D117E0FE232371031CA0220324C13358
:10DA8000FF339B00D2059C504B78012B04D183407F
:10DA9000181CA123DB0003E001238340181C054B65
:10DAA000D0500023181CF0BD4460002000600040EE
:10DAB000FFE0ECFF0C05000038B50B4B051C1A18F5
:10DAC000283210791C1C032801D8FFF75DFFFF22C4
:10DAD000631928331A71A023C135FF35AD00FD3A13
